{
  "_format": "hh-sol-artifact-1",
  "contractName": "Lesson8_EventsBank",
  "sourceName": "contracts/Lesson8_Events.sol",
  "abi": [
    {
      "anonymous": false,
      "inputs": [
        {
          "indexed": true,
          "internalType": "address",
          "name": "user",
          "type": "address"
        },
        {
          "indexed": false,
          "internalType": "uint256",
          "name": "amount",
          "type": "uint256"
        }
      ],
      "name": "Deposit",
      "type": "event"
    },
    {
      "anonymous": false,
      "inputs": [
        {
          "indexed": true,
          "internalType": "address",
          "name": "user",
          "type": "address"
        },
        {
          "indexed": false,
          "internalType": "uint256",
          "name": "amount",
          "type": "uint256"
        }
      ],
      "name": "Withdraw",
      "type": "event"
    },
    {
      "inputs": [
        {
          "internalType": "address",
          "name": "",
          "type": "address"
        }
      ],
      "name": "balances",
      "outputs": [
        {
          "internalType": "uint256",
          "name": "",
          "type": "uint256"
        }
      ],
      "stateMutability": "view",
      "type": "function"
    },
    {
      "inputs": [],
      "name": "deposit",
      "outputs": [],
      "stateMutability": "payable",
      "type": "function"
    },
    {
      "inputs": [
        {
          "internalType": "uint256",
          "name": "amount",
          "type": "uint256"
        }
      ],
      "name": "withdraw",
      "outputs": [],
      "stateMutability": "nonpayable",
      "type": "function"
    }
  ],
  "bytecode": "0x6080604052348015600f57600080fd5b506107b18061001f6000396000f3fe6080604052600436106100345760003560e01c806327e235e3146100395780632e1a7d4d14610076578063d0e30db01461009f575b600080fd5b34801561004557600080fd5b50610060600480360381019061005b9190610423565b6100a9565b60405161006d9190610469565b60405180910390f35b34801561008257600080fd5b5061009d600480360381019061009891906104b0565b6100c1565b005b6100a76102d8565b005b60006020528060005260406000206000915090505481565b60008111610104576040517f08c379a00000000000000000000000000000000000000000000000000000000081526004016100fb9061053a565b60405180910390fd5b806000803373ffffffffffffffffffffffffffffffffffffffff1673ffffffffffffffffffffffffffffffffffffffff168152602001908152602001600020541015610185576040517f08c379a000000000000000000000000000000000000000000000000000000000815260040161017c906105a6565b60405180910390fd5b806000803373ffffffffffffffffffffffffffffffffffffffff1673ffffffffffffffffffffffffffffffffffffffff16815260200190815260200160002060008282546101d391906105f5565b9250508190555060003373ffffffffffffffffffffffffffffffffffffffff16826040516102009061065a565b60006040518083038185875af1925050503d806000811461023d576040519150601f19603f3d011682016040523d82523d6000602084013e610242565b606091505b5050905080610286576040517f08c379a000000000000000000000000000000000000000000000000000000000815260040161027d906106bb565b60405180910390fd5b3373ffffffffffffffffffffffffffffffffffffffff167f884edad9ce6fa2440d8a54cc123490eb96d2768479d49ff9c7366125a9424364836040516102cc9190610469565b60405180910390a25050565b6000341161031b576040517f08c379a000000000000000000000000000000000000000000000000000000000815260040161031290610727565b60405180910390fd5b346000803373ffffffffffffffffffffffffffffffffffffffff1673ffffffffffffffffffffffffffffffffffffffff16815260200190815260200160002060008282546103699190610747565b925050819055503373ffffffffffffffffffffffffffffffffffffffff167fe1fffcc4923d04b559f4d29a8bfc6cda04eb5b0d3c460751c2402c5c5cc9109c346040516103b69190610469565b60405180910390a2565b600080fd5b600073ffffffffffffffffffffffffffffffffffffffff82169050919050565b60006103f0826103c5565b9050919050565b610400816103e5565b811461040b57600080fd5b50565b60008135905061041d816103f7565b92915050565b600060208284031215610439576104386103c0565b5b60006104478482850161040e565b91505092915050565b6000819050919050565b61046381610450565b82525050565b600060208201905061047e600083018461045a565b92915050565b61048d81610450565b811461049857600080fd5b50565b6000813590506104aa81610484565b92915050565b6000602082840312156104c6576104c56103c0565b5b60006104d48482850161049b565b91505092915050565b600082825260208201905092915050565b7f696e76616c696420616d6f756e74000000000000000000000000000000000000600082015250565b6000610524600e836104dd565b915061052f826104ee565b602082019050919050565b6000602082019050818103600083015261055381610517565b9050919050565b7f6e6f7420656e6f75676800000000000000000000000000000000000000000000600082015250565b6000610590600a836104dd565b915061059b8261055a565b602082019050919050565b600060208201905081810360008301526105bf81610583565b9050919050565b7f4e487b7100000000000000000000000000000000000000000000000000000000600052601160045260246000fd5b600061060082610450565b915061060b83610450565b9250828203905081811115610623576106226105c6565b5b92915050565b600081905092915050565b50565b6000610644600083610629565b915061064f82610634565b600082019050919050565b600061066582610637565b9150819050919050565b7f7769746864726177206661696c65640000000000000000000000000000000000600082015250565b60006106a5600f836104dd565b91506106b08261066f565b602082019050919050565b600060208201905081810360008301526106d481610698565b9050919050565b7f6e6f207a65726f2076616c756500000000000000000000000000000000000000600082015250565b6000610711600d836104dd565b915061071c826106db565b602082019050919050565b6000602082019050818103600083015261074081610704565b9050919050565b600061075282610450565b915061075d83610450565b9250828201905080821115610775576107746105c6565b5b9291505056fea264697066735822122019de2bd8225a20b9a809452f55c80d1434bbf270fe73e64d5be32fa771f7f38264736f6c634300081c0033",
  "linkReferences": {},
  "deployedLinkReferences": {}
}